S01A0000464D3135305F53656E736F72536869656C642E73726563AF
S11300005044002041010000451B0000211C000059
S1130010211C0000211C0000211C0000211C0000E8
S1130020000000000000000000000000211C00008F
S1130030211C000000000000211C000049210000D8
S113004000000000000000000000000000000000AC
S1130050000000000000000000000000000000009C
S1130060000000000000000000000000000000008C
S1130070000000000000000000000000000000007C
S1130080000000000000000000000000000000006C
S113009000000000000000000000000079140000CF
S11300A00000000000000000011800000000000033
S11300B0000000000000000000000000000000003C
S11300C0000000000000000000000000000000002C
S11300D0000000000000000000000000000000001C
S10B00E01D100000B510000022
S11300E802000000F80000000300000010010000F6
S11300F87044002064480020000000036448002085
S11301086448002000000003004000200040002054
S11301180000104000000203004000204A40002074
S113012840040000000001036448002064480020E3
S11301388A0400000000010380B500AF00F004F851
S113014800F0A6FEFEE7D4D4F8B504AF1848194960
S113015801600024184E2046B04701F06BFC0125CD
S11301682846B047204600F02FF801F009FC01F0BA
S1130178BAFC0220B047284600F026F80F4D28465E
S113018802F024F8284602F037F80D4D0D48401BBC
S11301988610B44203DA01CD8047641CF9E701F004
S11301A83AFD0020F8BC02BC8E4601F037BDC046BB
S11301B808ED00E000000000490E0000644800203B
S11301C89246000092460000F8B504AF0446104871
S11301D80668456856B1687AA04204D103CD091A65
S11301E8083D03F057FC0C35761EF3E7084886688B
S11301F8C5685EB1687BA04205D105CD2968121A8D
S1130208083D03F04EFC1035761EF2E7F8BDC046F3
S1070218E8000000F6
S1070400FFFFFFFFF8
S1070404F7AFC1FF8A
S1130440010C03280A040820004404AA0000F00058
S1130450000000000055AA55AA55AA55AA245231F5
S11304603132333A3435363A3738393A3133353A2A
S11304703234383A3336390A0000208B0100E8035D
S10D04800A0019006400E803E80311
S11304900022282A03D08B5C8354521CF9E70020E5
S11304A070470022282A03D08B5C8354521CF9E73E
S11304B0002070470022282A03D08B5C8354521CEE
S11304C0F9E700207047FEB506AF00920191064699
S11304D000242146C8B2325C0A2AE3B21CD0301888
S11304E00D460A2A05D03A2A03D06D1CEAB2B25C42
S11304F0F7E702945B00019CE318691AC9B2D2B20F
S113050001F09EFBE8B2305C0A2801D1294600E0E4
S1130510691C029C641CDDE70098181A411E88417E
S1130520FEBDB0B502AF2622835C9B00C458056AA9
S11305302C1B0462C150835C5C1CE5B20021072DB6
S11305400D4600D825469C0004598554024626329F
S11305505370026A1219026292B2D2088284084667
S1130560B0BDB0B502AF2622835C9B00C458056AB7
S11305702C1B0462C150835C5C1CE5B20021072D76
S11305800D4600D825469C0004598554024626325F
S11305905370026A1219026212B2082392FBF3F238
S11305A082840846B0BDB0B502AF2822835C9B00AC
S11305B0C458056A2C1B0462C150835C5C1CE5B200
S11305C00021072D0D4600D825469C00045985546A
S11305D0024628325370026A1219082392FBF3F37D
S11305E0026243620846B0BD80B500AF8AB0022003
S11305F040F2E834079040F2E83101F079FAFA4821
S11306000068B0FBF4F0401E010E0DD1FB49FC4A1A
S11306105060FC4803680B400321890759180160A6
S11306200020906007201060F748F84900F03AFC79
S1130630F748F84901F004F8F74DA861F74908466E
S11306400C461830F64920220992039003F02DFA43
S1130650002666842C464034FC4918220692204623
S113066003F023FAF7498C63012008902071E670A7
S11306700C463C342046F449099A03F016FA0494D3
S113068066812C4658342046F049069A03F00DFA48
S1130690EC48C46508982071E670ED4C2046EA49A0
S11306A0099A03F002FA6681E64C2046E749069A65
S11306B003F0FBF9E6480462089B2371E670E54801
S11306C0132132461C4601F0F7FAE3480E2109963D
S11306D03246234601F0F0FAE0482830E04C01901D
S11306E02146FFF7DEFEDF482146FFF7DAFED84E4B
S11306F030462430DC4C06902146FFF7C9FE3046D4
S11307004C3005902146FFF7C3FED849D348FFF784
S1130710D1FED7481F302946323106220292FFF714
S1130720D2FED44ED44CD54B3078002800D1B5E25B
S113073009983070E87801281ED16879411C6971E4
S1130740022816D001280AD0B0B95021BC48416013
S113075029460D310222012301F009F806E0C449BB
S11307600A7914310023B64800F0F2FFC34BA861A4
S113077002E000206871E8702879012810D1502027
S1130780AF4B5860BA48007929462931821C0024AD
S11307901846234600F0EBFFB84BA8612C71B64C09
S11307A06878012849D1A878411CA970032844D845
S11307B0810001A251188F4600F006B800F034B849
S11307C000F00BB800F021B844219D48416002229A
S11307D00023AB4900F0CBFF2DE0A88B40BA40F2D8
S11307E03B114843A749B0FBF1F03138A04A90705F
S11307F028461C300079E97F090208186421414326
S1130800A048B1FBF0F0D07017E0994CA17806989D
S1130810FFF7A7FEE178984C0598FFF7A2FE974BE7
S11308200020A870687008E029461C3106220023C5
S1130830834800F08DFF914BA861A87901285ED10F
S1130840A87A08285BD8810001A251188F46C046B7
S113085000F010B800F03CB800F01CB800F022B86A
S113086000F011B800F03DB800F0B6B800F022B8BE
S113087000F0D8B8844800F067FD686182480499A4
S113088000F046FC36E0814A108881490840108017
S1130890052133E076490A31032207237A4800F020
S11308A03BFD27E0794A108840F20041084310805C
S11308B0042123E028462230417809048278120278
S11308C05118C07809180198FFF76DFE6B4B13E0BF
S11308D06E4A10886E49084010800898E872022118
S11308E00CE00723009362490D312A462232664800
S11308F000F01EFD614B6861A87A411CA972E87979
S1130900012800D0DEE0A87A082800D9DAE08100C6
S113091001A251188F46C04600F010B800F045B847
S113092000F025B800F02BB800F01AB800F046B873
S113093000F05CB800F02BB800F0B0B8524800F0FA
S113094003FD6861002800D04DE24F48049900F08F
S1130950DFFB6861002800D047E2A87A401CAFE0C2
S11309604A4A10884B49084010800520A9E04049B4
S11309700A3103220723444800F0CEFC27E046480E
S1130980401C424A118801431180042099E0284602
S1130990223041780904827812025118C07809186B
S11309A03048FFF700FE354B13E0384A10883949C8
S11309B0084010800898E872079882E007230093A3
S11309C02B490D312A4622322F4800F0B1FC2B4B23
S11309D06861A87A401C74E02C4A108840F20041F7
S11309E008431080072189E7D04700202A48401C8B
S11309F0264A118801431180072062E0FFFFFF00AF
S1130A0010E000E020ED00E0D4460020E4410000C6
S1130A10A0460020B441000074440020E4440020B7
S1130A207C410000184800F08FFC6861FA48F049E6
S1130A3000F06EFB114B0021A9716861E9725DE75A
S1130A40A0460020E44400207C41000064410000F2
S1130A504445002044410000E7400000B845002020
S1130A60584000000C460020304000008440000044
S1130A7001400020544800205548002057480020D9
S1130A80AC400000FFFF00007446002020000A4034
S1130A90FFFB0000FFEF0000FF0F0000DE4800F046
S1130AA053FC6861002800D09EE1DB48D04900F087
S1130AB02FFB6861002800D098E10998E871E8727A
S1130AC0D94BA872287A01285DD1A87A06285AD869
S1130AD0810001A251188F4600F00CB800F03AB81A
S1130AE000F021B800F02DB800F011B800F03AB8C9
S1130AF000F085B8C84800F027FC6861C64803992F
S1130B0000F006FBC84B68610898E8723AE0C248F6
S1130B1000F01AFC6861C048B54900F0F9FAC24B0C
S1130B20686105202EE007200090B548811D2A4603
S1130B3022320223B84800F0FBFBBB4B6861032060
S1130B4020E0B2482038018840F2001211430180AD
S1130B50042017E0AD4820380188B04A11400180D4
S1130B6007980FE02220285C6874284622304078D9
S1130B702874288A4108A34801409F48FFF7D1FC04
S1130B80A94B0298A872687A012800D086E0A87A56
S1130B90112800D982E0810001A251188F46C04675
S1130BA000F022B800F049B800F06CB800F036B894
S1130BB000F072B800F070B800F06EB800F06CB8D5
S1130BC000F034B800F05AB800F020B800F064B86F
S1130BD000F062B800F060B800F05EB800F034B81D
S1130BE000F012B800F03BB80898E8728A4800F0A8
S1130BF0ABFB68618848039900F08AFA49E00998D8
S1130C002872A872E872BEE7112046E07F4A108875
S1130C1040F20021084310800B203EE07B4A1088FC
S1130C2040F2002108431080042036E0774A1088FF
S1130C3075490840108009202FE0744A10887249D1
S1130C4008401080079828E0072000906C48811D18
S1130C502A4622320423704800F06AFB19E06E48E9
S1130C6000F072FB68616C48614900F051FA6E4B08
S1130C7068610998A872E87268720FE06048411DC3
S1130C80012202E05E49083102220723624800F093
S1130C9043FB654B6861A87A401CA872207830B188
S1130CA00020207000F0C0FF5F4B554948705D483C
S1130CB0007820B300205B490870E97AF9B92A7BEF
S1130CC0032A1CD82946A91D0324930001A6F6185B
S1130CD0089BB74600F00CB800F004B800F00BB85D
S1130CE000F003B8E91D022302E029460831034657
S1130CF0089808701C462C73464E494C4A4B187889
S1130D0028B3002018702878404A203A13884749AD
S1130D100B40C1070C0DE31813800222D2433C4B55
S1130D201B8813408C0F1B19394E3380374E338880
S1130D3013401A193A4C3280328804239A43490FDB
S1130D4051183180334E0121697048402870384869
S1130D500078012804D100203549087001F098F882
S1130D6001F00EF808B901F063F832480078012860
S1130D702D4B00D0D8E430480078012800D0D3E4CB
S1130D8000202D4908702D48007831280ED03028D5
S1130D9000D0C9E4482017490B5E7020085E16494C
S1130DA0CA6C009015482C3026490EE048201149A1
S1130DB00B5E50201049085C80000818826A1048B5
S1130DC0007800900D482C301D4901F023FA0B4C9B
S1130DD02C34204602F07AFE81B2012220461346CA
S1130DE000F06AFF9EE4FEE7FEE7FEE7FEE7C0468A
S1130DF07C41000044450020B84500200C460020FA
S1130E0001400020FF0F0000FFFD000020000A4009
S1130E1040000A405448002074460020FFFE0000B1
S1130E20554800205648002057480020FFF700008E
S1130E3040480020414800205848002042480020F3
S1130E40C240000008410000022804D010B906483E
S1130E500121017070470248024900F085BBC04679
S1130E606C460020EC42000090C07E4040B1007906
S1130E70044908700878032802D10348002101704E
S1130E807047C04600400020714400200148002102
S1130E90017070477244002080B500AFFFF7A4FBD7
S1130EA0002080BDF0B503AF85B0012478B10E46B3
S1130EB069B10546F06950B1406840B16868354988
S1130EC0884201D10E2402E0307818B1324C204619
S1130ED005B0F0BD052031560029F8D40723F1569A
S1130EE00029F4D4EE6171692962B16900246C624D
S1130EF0A9622A49A961EFF31081029101210391AA
S1130F0081F31088264A0493136848F200018B4346
S1130F1013601168029981F31088A969EA69029043
S1130F20D069426853780B711178EA6912781D4BC5
S1130F30D154B1781C4A515C7278D2000A43F178DA
S1130F40890011430190027852000A434178114309
S1130F50AA69D170A96903228A70A96983228A7057
S1130F60EC606C61A969E3228A7002983056317989
S1130F702A4600F049FE019840684088039900F031
S1130F80B7FD04983056B1792A4600F03DFE014879
S1130F9068609CE7545241557A05000000340A40C9
S1130FA00070044000350A40F8420000F8B504AF70
S1130FB016460C46054600F01FF800B1F8BDE86877
S1130FC008B10820F8BDE86907210091405600F0F7
S1130FD00BFE701E611CA960E860A869817802227A
S1130FE00A438270E8690099405600F0F1FDA8694F
S1130FF0217801700020F8BD0346012043B139B1C6
S1131000511E090C04D158680349884201D00720B5
S1131010704700207047C046545241550F200007C6
S1131020EFF303810906081880150E490858C168B2
S113103051B18169826812780A70C168491EC16021
S11310408168491C8160704781698A78920703D45A
S11310500021022200F008B88878FD2202408A703C
S11310607047C04628470020F0B503AF89B0044656
S1131070006AE0B1636A05A85BB105A80290039118
S11310801D4601930492029B47CD47C30399049ADA
S11310900198E3691B78816003600271A16AC160F1
S11310A0216A8847606A10B105A93CC93CC009B0EF
S11310B0F0BDD4D4D0B502AF0F200007EFF3038105
S11310C009060818801510490858836959785A790F
S11310D007249C71224006D00C4B9A5CD0BC08BCFF
S11310E09E46FFF7C1BF42694AB1026911700169A6
S11310F0491C01614169491E416102D0D0BD0422ED
S1131100ECE700210122E9E728470020FC42000027
S1131110F0B503AF91B00124002900D1E9E00646FF
S1131120002800D1E5E00D4630687349884201D1BA
S11311300E24DEE02A6A002A00D1DAE0A869002839
S113114000D1D6E003216856002800D5D1E00C91E7
S113115050794002694940187560B060A8697062AE
S1131160E869202100240B917454B062EFF31080DD
S113117001210D9181F3108802925179402201924C
S11311808A405F490B6893430B60096880F31088B9
S11311907268B16840F2281008180A9040F22A10C8
S11311A008180590507B099010780F90106A037905
S11311B00793C378089383780693527A40F22813EE
S11311C0CB5A10910E9382B10D99920303924079F8
S11311D00F9A104307D14B4B10461A78042313433C
S11311E0024648480370049419E040F226128A1813
S11311F00D9B1946138040F200120F9B9A404378CE
S11312005B0204930378DB0303930079012802D182
S11312100E98904301E00E9810430E900F9A0B46DF
S113122093400598114602881A43028048000590AD
S1131230109908180F90069A039802430B980243DA
S113124040F210110F984252079801030898400386
S113125008430999C90101432B48084340F2181176
S11312600F9A505204981099059A88520E999943EE
S11312700A980180B06840F2221143520C98285613
S1131280E979324600F0C0FC1B483060687A0128D6
S11312902FD1EFF310810D9D85F310881B48026850
S11312A022B91B4A00231370019B13700268521C5D
S11312B0026081F31088029B9989042291431A8960
S11312C0D3B25B00120A5201D218124BD152EFF37F
S11312D0108185F31088026812B10268521E026000
S11312E0006820B90A48002202708022027081F34B
S11312F01088204611B0F0BD5355415300200A40D8
S11313000070044003100A4007C000002447002076
S113131040030A4000020A40DCB504AF31B1144670
S113132000930022234600F03DF8DCBD0120DCBD23
S1131330DCB504AF29B122B1BC68009400F032F8E6
S1131340DCBD0120DCBDD4D4B0B502AF10B304467B
S11313500068134988421FD16068A1680078420080
S1131360891840F2181200258D5201218140A0688D
S113137040F22412835A0B438352A06840F22A128B
S1131380835A8B43835260680321405600F02CFC3F
S1131390256002E0012500E007252846B0BDC046CF
S11313A053554153F0B503AF87B0012480B10568AC
S11313B0304EB5420BD15BB10692BA68072A01D010
S11313C0062A55D12025455D2DB1082400E00724C7
S11313D0204607B0F0BD054620350395456886686C
S11313E001962D78029501260596AE40049640F2AA
S11313F02415019E049C7453D41F654265410195D4
S1131400029C650002958468621940F21816945B88
S1131410059DAC43019D64199453846840F22215E0
S1131420049E665344688568029EAE19256A40F29C
S11314301014345BAD78012D059D069A0DD10294EC
S113144040F2101436190496022B2E4600D80026BA
S1131450029CAC43A419049E3480002406460C3636
S113146016C68461C36103990D7000F060F8AFE79C
S11314700624ADE753554153F8B504AF0F200007D8
S1131480EFF3038109060818801521490C58606898
S1131490A16800784500481940F20011415AC90773
S11314A013D140F21011465AF00719D1204600F02A
S11314B04DF8E069616981421CD30121204600F0A6
S11314C029F8202000212154F8BD40F208110122FE
S11314D0425204212046F8BC04BC964600F01AB8D7
S11314E06069022803D3204600F030F86069E1699E
S11314F0884205D22046F8BC02BC8E4600F017B8DC
S113150001208643A068401940F210114652F8BDEC
S113151028470020F8B504AF4268137801AA117176
S11315200193416A806A0390104688478FBDC26860
S11315304168097812B14369D25C00E0FF228368F4
S113154049005A524169491C4161704741688268A7
S113155009784900515A02690AB18369D1548169F1
S1131560491C81617047D4D480B500AF0246012084
S11315708AB181B14B685BB113680748834201D1DA
S11315800E2080BD1060084600F008F8002080BDE1
S11315900B88002BF0D080BD54524F50F8B504AFE7
S11315A0044600F01BF800200B49024623889A42A7
S11315B00CD263681D18AD88EEB276002D0A6D0159
S11315C0AD191B586B520830521CEFE7F8BC01BC34
S11315D0864600F01BB8C04600020A40EFF31080B4
S11315E0012181F3108807490A6822B9064A0023B9
S11315F01370402313700A68521C0A6080F3108829
S11316007047C0462447002040030A40EFF310808F
S1131610012181F3108808490A6812B10A68521E30
S11316200A60096821B9054900220A7080220A70FB
S113163080F310887047C0462447002040030A40C6
S1131640F8B504AF04460120002C71D000296FD0F6
S11316504A6A002A6CD010228B56002B68D4E068AA
S1131660344B984201D10E20F8BD087808B13248B5
S1131670F8BD204624300090216088686060087BB3
S11316802072C869E062086A2063EFF310800123C6
S113169083F310880B7840F200459D40274B1E6869
S11316A0AE431E601B6880F310882068456AA878E2
S11316B0234B98706878D8702B78E87880001843AA
S11316C023685B681F4EB34201D0082318431C4EA5
S11316D070708856497B224600F096FA30787F2154
S11316E00140317018480221017030789C21014377
S11316F0317000F0E7F8A889C1B24900000A40013E
S113170040182969114A8152A888C1B24900000AC7
S113171040014018A968815200F0ECF80020009ABA
S11317201070D0706061A061E0610249E160907066
S1131730F8BDC046434949527A0500000070044090
S113174000310A40A086010002300A4000020A402B
S1131750D0B502AF48B142B1252403550123039CFF
S1131760A646D0BC01B000F011B80120D0BDD0B560
S113177002AF40B1252403550023039CA646D0BCE8
S113178001B000F003B80120D0BDD4D4F0B503AF4C
S11317900446012061B3E568164EB5421BD1E56AE3
S11317A035B32546213500206161A261E061217ACB
S11317B0012905D101216970217949001943297052
S11317C0591E8B41EB70A871E871A870697921B139
S11317D06871012108E00720F0BD07490A78022357
S11317E013430B70A978491CA9702978034A117016
S11317F0F0BDC0464349495200310A4000300A4016
S1131800F0B503AF0F200007EFF3038109060818B2
S1131810801529490858024624320121274B5D5678
S1131820EC072ED1ECB2660701D41679DEB1002D97
S113183019D540252C4016D18569C469AC4218D20B
S1131840157825B316791D781D4B56B341690D558E
S1131850C169491CC16182691878914228D1D32198
S11318600840283026E0D170154802780A430270F7
S1131870F0BD5578124B1C7885B102252C431C70A1
S11318809170D178F0BC04BC964600F04DB8416923
S1131890095D1970C169491CC161F0BD0C431C701C
S11318A0F0BD11711878D321014024311970F0BDB5
S11318B0202108431870F0BD2847002000300A405A
S11318C000310A40EFF31080012181F310880749A9
S11318D00A6822B9064A00231370402313700A6869
S11318E0521C0A6080F310887047C04624470020C9
S11318F040030A40EFF31080012181F31088084966
S11319000A6812B10A68521E0A60096821B90549B9
S113191000220A7080220A7080F310887047C04643
S11319202447002040030A40E0B502AF09B1012278
S113193005E02421415C09B1022200E0032269464A
S11319400A71C26A006B0090084690478CBDD4D4DB
S11319500C490A789209904212D04A780123134321
S11319604B70022806D00A78C0231340802B01D084
S113197080220A70800108704878FE2202404A7072
S11319807047C0460AC27E400C48C17A890706D413
S1131990017A890708D40A490968007807E0817A3E
S11319A0074831B1083005E0054949684078C1402D
S11319B001E01030016803480160704718E80140F5
S11319C050440020D0470020F8B504AF00911A4CD1
S11319D0E17AFE252940E172E17A8907FCD428B135
S11319E001260228314619D0012816D1617A2940EE
S11319F06172617A8907FCD4267A30B101200643EA
S1131A002672207A8007FCD50FE02E402672207AB9
S1131A108007FCD40098207007E00021A172E07ACE
S1131A203043E072E07A8007FCD56270A370F8BCA2
S1131A3001BC8646FFF7A8BF18E80140F8B504AF1B
S1131A402148C01C21490880214848F20001002592
S1131A50204A214B036042608160C5600161FFF749
S1131A6093FF1E4E1A2030701D48017889B1012160
S1131A70CA051C490B6893430B600B681A4B1C780E
S1131A807F202040187008681043086008681448D4
S1131A900570307B08B1357303E040F2E83000F0A4
S1131AA025F84AF200540320FFF752FF3572B07C48
S1131AB0C007FCD00020014602460346FFF784FF1E
S1131AC002480480F8BDC04600A5FFFFFEE80140BF
S1131AD05044002000093D000048E80100E80140AE
S1131AE024E80140087004400B2C0A4070477047FA
S1131AF002464A430E4800680E49B1FBF0F140F239
S1131B00E8300D4B9A4204D25043B0FBF1F0800808
S1131B1005E08900B2FBF1F1994204D2484308B1CF
S1131B2000F00CB870470020C04300F007B8C0466E
S1131B30D047002000CA9A3B388941000138002868
S1131B40FCD17047F8B504AF0C490888098C0140F2
S1131B5000918EB200240A4D092C0AD03046E04090
S1131B60C00703D0296809B1E0B288472D1D641C61
S1131B70F2E7024800990182F8BDC04620610040A6
S1131B8000470020F0B503AF03240346A343084CE9
S1131B901D598607F60EFF24B440A5438901C9B236
S1131BA0B1402943024C1951800002490A50F0BD4A
S1131BB000E400E0284700201F21014001228A4060
S1131BC040098000014942507047C04600E100E0EE
S1131BD01F21014001228A4041098900014BCA505A
S1131BE0FFF7EABF80E200E01F21014001228A40A2
S1131BF04009800003494250BFF34F8FBFF36F8FFA
S1131C007047C04680E100E0D0B502AF0446FFF75C
S1131C10B9FF2046D0BC02BC8E46FFF7D9BF70473F
S1131C2000BE70477047D4D40448018C0088012258
S1131C300240C807800F80187047C04626000A403B
S1131C40F0B503AF86B00093039200240126324618
S1131C500594029101961546049200238C4201D307
S1131C601A4600E001222A403146114001291BD1C5
S1131C70055D29463039012300260929F4D8641C5E
S1131C80035D0A21059A514349193039059100220F
S1131C9003998B4205D0002B0299019E049DDCD14F
S1131CA0D9E70299019ED6E7F00702D0009805997A
S1131CB00180D8B206B0F0BDF0B503AF85B0049290
S1131CC0024601930BB10B4600E08B1C9DB22A48DF
S1131CD04378007802900393C61A00D83236B3B220
S1131CE09D4244D200250398234EEBB28B4210D27E
S1131CF0D35C13B9049C012C09D1C4B23419A37167
S1131D00401CC3B2312B00D900201B4B58706D1CF2
S1131D10EBE70199A9B9C3B21749891D0D22CA5429
S1131D20431CDAB20020312A024600D81A46D3B244
S1131D300A24CC54511CCAB2312A00D808460E4990
S1131D40487002990398814213D10B4C6018811D8D
S1131D500A480122FFF72AF92078411CCAB2002060
S1131D60312A024600D80A4603490A7002E00120DB
S1131D7000E0002005B0F0BDD4470020D446002088
S1131D8003488178C078411A484248417047C046A8
S1131D90D4470020D0B502AF01794A1E072A08D9DA
S1131DA010291CD020291AD0402918D0802916D0F7
S1131DB0D0BD910001A359188F46C04600F00FB85A
S1131DC000F012B800F00AB800F021B800F006B82C
S1131DD000F004B800F002B800F001B8E8E71248D7
S1131DE08188491C8180D0BD0F4C2078617888425D
S1131DF0DED02018811D0D480122FFF7D7F8207886
S1131E00401CC1B2312900D900202070D0BD064940
S1131E108A788B18806838241855501CC2B2312A2D
S1131E2000D900208870D0BDD4470020D4460020BB
S1131E30B0B502AF13490878134A135C242B06D1BA
S1131E40124B01241C705C70125C5A7110E00F4B31
S1131E501C78012C0CD15C78651C5D70155C1C1918
S1131E606571125C0A2A03D100221A7001229A7049
S1131E70421CD3B20020312B034600D813460B700A
S1131E80B0BDC046D74700200C4800203E48002083
S1131E90F0B503AF91B0934DA8790026422822D023
S1131EA0492837D04C286AD0522854D0532810D00F
S1131EB0562800D182E0622815D069282AD06C28DF
S1131EC05DD0722847D0762878D07328344600D065
S1131ED004E1E879012800D08EE00120E870287A36
S1131EE030382871F9E08D480078012800D086E068
S1131EF08D4806250024294622462346FFF7DCFEAA
S1131F008A482946774D22462346FFF7D5FE834863
S1131F100470E3E0E81D05210A2210AD2B46FFF70B
S1131F208FFE04462A881046C83840F20871884259
S1131F300FD88348028003AD8249284600F06AF92D
S1131F40284601F0C3FD81B2012228461346FFF75B
S1131F50B3FE644DC2E0E87932286CD031285CD0FD
S1131F603028344600D0B9E024205F490B5E624932
S1131F700A5E5F49085E009003AC70496BE0E87943
S1131F8030380528344600D9A8E0810001A2511850
S1131F9034468F4600F00AB800F06AB800F05FB823
S1131FA000F09CB800F072B800F07EB827205549C4
S1131FB0085C80000A5803AC534982E0E879303861
S1131FC00528344600D989E0810002A2511834461C
S1131FD08F46C04600F00AB800F052B800F045B889
S1131FE000F07CB800F05AB800F066B824204549E7
S1131FF00A5E03AC484964E00024EC706EE0484893
S11320000A21002422462346FFF756FE45480621AE
S113201022462346FFF750FE60E0242032490B5E3F
S113202026203549085C80000A5842480078009010
S113203003AC41490FE024202B490B5E26212E4A94
S1132040515C890052582A49095E2E4C205E009149
S1132050019003AC3649204600F0DCF834E0272038
S11320602549085C8000254906E02420234909E02D
S113207027202149085C80000A5803AC204920E04D
S113208024201D490A5E03AC22491AE02720164980
S1132090085C80000A5803AC144912E02420124959
S11320A00A5E03AC19490CE027201149085C800042
S11320B00A5803AC0F4904E024200D490A5E03AC1E
S11320C01349204600F0A6F8204601F0FFFC81B237
S11320D0012220461346FFF7EFFD3446AE7020463A
S11320E011B0F0BD3E4800206845002001410000C9
S11320F090450020B4400000E04500200C4600203C
S11321001C410000B84500203D410000E0400000B3
S113211015410000BB400000FA400000704400205C
S113212032410000D4400000D9400000CF400000FC
S11321302241000001400020C2400000084100008C
S11321403E400020AE4000001F480188491E018027
S1132150090404D10A2101801C4901220A70418822
S1132160491E4180090404D11921418017490122E3
S11321704A708188491E8180090404D164218180C8
S1132180124901228A70C188491EC180090405D1FF
S113219040F2E831C1800D490122CA700B49CA8856
S11321A02AB1521ECA80120401D101224A71028945
S11321B0521E0281120400D0704701220A710449A0
S11321C0098801817047C0464040002054480020DF
S11321D03E400020D0B502AF04460549054A01F04F
S11321E064FC05482018054901F058FCD0BDC046E0
S11321F08A0400000000000000000000000000004D
S11322000249401A024908607047C04608000000AD
S11322106048002082B0B0B502AF88B00446BA600E
S1132220FB606846022282700025058006950395AE
S11322300295094A01920494084AA2180592FA1DCB
S11322400132079200F014F8002800D4255408B095
S1132250B0BC02BC02B0084761220000FFFFFF7F50
S11322600A694B699A4202D0531C0B611070704783
S1132270F0B503AFA3B0034622920024E0439A785A
S1132280920701D400F06FFD1A94109019935868C6
S11322901890229821901BA8821D0B92421D09922E
S11322A0401E07900120129040020F90AE48401C3F
S11322B006900D910D461591159D2878252805D079
S11322C0002801D100F051FD6D1C03E06C78AD1CB9
S11322D0252C0AD115951999189A90471A99491CD1
S11322E01A910028E8D500F038FD002117911691C5
S11322F014910F9A8EB21F2E21D820462738092810
S11323003BD880000B4602A1085819468746C046B0
S11323101324000043230000432300004323000050
S11323203923000043230000ED2300004323000071
S113233043230000E92300000220014347E07F2EED
S11323400ED82046303809281DD80C46402E44D2D9
S113235020210C430A21169B59434018169041E052
S11323604C2C37D0682C48D06A2C33D07A2C50D0DF
S1132370742C4ED06C2C3BD07BE0202C27D0232C0B
S1132380DFD1102044E0242C48D07A2C41D02E2CCC
S113239039D04C2C1ED0682C2FD06A2C1AD06C2C1F
S11323A026D0742C35D02A2C63D11498002830D12F
S11323B00C462198011D21910068002114913F2EA3
S11323C00FD800284ED420210C4321464EE0084665
S11323D004211DE0104680301AE00A21179B59435E
S11323E040181790214614E0012011E008200FE066
S11323F088001040084380210AE048001040084348
S11324001299090204E03F2E01D900F0AEFC4020ED
S113241001432C786D1C002C2AD06BE714980028FB
S11324201AD0119122982190402E169A144600D366
S1132430179A21A90D9800F0A1FC2198011D219162
S11324400168402E084600D32046402E0F9A00D340
S1132450179116901199DCE70021169814901691A3
S11324601791D6E728210C43214640421690D0E725
S11324700024149A002A07D0229821900E4621A9FC
S11324800D9800F07BFC31461798002801D54020B8
S11324908143179AD017134683432026224632439A
S11324A01046653803281393159501D3612A31D159
S11324B00E462198C11D072081430846083021900B
S11324C0131B03C9612A149312D1DAB20092720663
S11324D0109B00D5139B1BAA00F02AFD1390401CEF
S11324E00C900320C002064370200590012166E091
S11324F0730601D406231393D3B2662B2CD0652B19
S113250034D1012212031643139A531C002265246A
S1132510059448E0E0B214906F3806280C962AD847
S1132520082300260E9680000E4602A10858314664
S11325308746C04643270000512500002B27000092
S11325402B270000752700002B27000039270000E7
S1132550102319437820F3E0012462031643662212
S113256005921123139A1FE0E7030000139C23062E
S113257015D0234614E01498692800D1C3E06428D8
S113258000D1C0E0632800D0CFE00E462198011DA1
S1132590219100681BA90C4608700120FBE001236F
S11325A0921E05920022144600940192DBB2112B74
S11325B000D311231BAA00F075FD0C900221082002
S11325C0C0431B9A8242169B08DA6220C0438242AF
S11325D00DD2FC48824208D2042109E0092A07DD11
S11325E0632A04D9D0087D28F6D2032100E0022111
S11325F00A911BA8017900200E90C807B0B211926D
S113260009D13446B2070AD442070C9E0CD40022E6
S1132610089201220BE034462D26089602E02B2274
S11326200892119A0C9E04E02022089200220E9235
S1132630119A0907890F04D00E98002813D1042099
S113264012E0A104890F00D0DBE0139B012B00D81A
S11326500123F1B2002943D01BAA8A181279302A27
S11326603ED1761EF5E7032000211791834213DD46
S113267021070FD4C61A20201999189A90470028C8
S113268000D56AE3701C1A99491C1A91B042064697
S1132690F1D201E0181A17900E98002809D1089871
S11326A01999189A9047002800D556E31A98401CA7
S11326B01A901BA800790007CD4C00D5CD4C20788A
S11326C0002800D12EE31499401AC0B21999189A1F
S11326D090471A99491C1A91641C0028EFD53CE3D1
S11326E0C00600D519460320C043119A82420C96B5
S11326F019DB9A4217DA0120400304438A427EDA46
S1132700D04308187CE088B2119109066FD421994E
S11327100A1D21920A68C10500D43DE2800500D556
S113272039E212B238E2481E6AE0782A00D051E158
S11327308820031B0E9404E0AF4801400A2375204F
S11327400E900C46AD4804400806119109D4219816
S1132750011D21910068E2050021002A39D4264692
S113276063E12646A005219839D4011D2191006812
S113277000215AE121980A46011D21915106109920
S113278000D51399006800289D4A00D002461446DB
S1132790104600F077FC3107169917D481420A4697
S11327A000D30246179225460446A14200D829E1E7
S11327B00E4620201999189A9047002800D5CCE29B
S11327C03146711E1A98401C1A90EEE725460446BD
S11327D019E12646A20500D526E180B225E1C11DF6
S11327E00720814308460830219003C91DE1800574
S11327F0219800D533E1011D21910268CCE100202C
S113280013900A99012043032340A6B2C4020493FF
S1132810002B03D1264205D0052004E0012A03DB66
S1132820501C01E003204018F2061399002903927A
S1132830179401D0491C00E0D10F01220E9B5A408D
S11328408B181B18169CE41A00DC002409231E4272
S113285014D1002C12D0081880181699441A20207C
S11328601999189A9047002800D576E2601C1A99A5
S1132870491C1A91A0420446F1D200240E98002863
S113288009D108981999189A9047002800D564E24C
S11328901A98401C1A901798064213D030201999A0
S11328A0189A9047002800D557E278201499401AC6
S11328B0C0B21999189A9047002800D54DE21A9889
S11328C0801C1A9030070ED4002C0CD01A982018B3
S11328D01A9030201999189A9047002800D53CE2A4
S11328E0641EF6D1002404980028119E179431D157
S11328F01BA84079312804D01BA90A79EF2313407F
S11329000B711999189A9047002800D525E213985D
S1132910012859DB2E201999189A9047002800D5D0
S11329201BE21A9813990818851C0C98C4B200204D
S11329301399814200D1A3E0461CA64202D20B990E
S1132940085C00E030201999189A90470028304616
S1132950EED502E209988519F0178643109C74435A
S11329601398404216900C98C0B21490012C09D1CF
S11329702E201999189A9047002800D5EDE11A984D
S1132980401C1A9030201199091903D4149A9142C9
S113299000DA285D169A96420ADD1999189A90472A
S11329A0761E641C1A99491C1A910028DED5D4E1BC
S11329B0491C00D2D6E01BA94979352900D8CBE0BF
S11329C03120CFE019FCFFFF039800284FD41A9858
S11329D0451C55E025201999189A9047002800D5E0
S11329E0BBE114981999189A90471A99891C77E4AD
S11329F0F640000058410000EFFF0000F9FF00001E
S1132A005C41000017991A9800191A90081B179036
S1132A10002C00D186E128781999189A90476D1CEA
S1132A20641E0028F4D598E1C0B202460A4302D1DC
S1132A301624119EA643002A06D01BAC224600F0A1
S1132A4049FA021B0E9CC6E0119A5206F5D5179A54
S1132A50012AF2DAC648119E06400022F2E7C01DA0
S1132A60072188430146083121910CC895E02E20A6
S1132A701999189A9047002800D56EE11A98851C78
S1132A8014980599081AC0B21999189A9047002801
S1132A9000D562E1119A002A09D42B20002A09D119
S1132AA01BA90979C90602D40021119102E05242FE
S1132AB011922D201999189A9047002800D54CE1BD
S1132AC00A99042913D37D20C100119801F006F856
S1132AD004463030C0B21999189A9047002800D59E
S1132AE03BE1069844431198001BED1C03E0AD1C28
S1132AF0032911982DD164241190214600F0EEFF92
S1132B0006463030C0B21999189A9047002800D56B
S1132B1023E174431198001B6D1C0A241190214673
S1132B2000F0DCFF06463030C0B21999189A90477D
S1132B30002800D511E174431198001B6D1C30303E
S1132B40C0B21999189A9047002800D505E1681C6D
S1132B50E7E00229E1D2F2E704D11BA90979C90609
S1132B6000D42DE71999189A9047002800D5F4E06D
S1132B701A98401C0399002900D4D2E0002C00D0FC
S1132B80CFE02E201999189A9047002800D5E4E048
S1132B901A98801CC5E052B2D317DE17194671404B
S1132BA0149210467040801BB141002B01D4119A3D
S1132BB003E00126B202119E32431026B243149E52
S1132BC01E43164600D1BEE01BAA17920A2300F04A
S1132BD081F91799421A169B70060AD53046654941
S1132BE0084013998A4203DA002C04D0064604E014
S1132BF00646119203E01120864313981190102188
S1132C0031400E91B0B21492179007D1139E5A49D5
S1132C101F3101404A1E9141024605E0002C1299E1
S1132C2000D00221139E179A1198091810071ED478
S1132C30D00707D0994204DA1498C018461A1946E6
S1132C4000E0149E8B4213930EDC13910CE00D46AE
S1132C5020201999189A904700287ED42946691C87
S1132C601A98401C1A90169B9942F0DB13990E98FF
S1132C700028179A1AD140481F30024228D09007E2
S1132C8001D52B200C900C463B481930024201D050
S1132C902D200C900C981999189A904700285CD410
S1132CA01A98401C1A901698214618E01791302063
S1132CB01999189A904700284FD4002C0AD0E0B2F2
S1132CC01999189A9047002847D41A98801C03E051
S1132CD0169804E01A98401C1A9016981799401AEE
S1132CE01790149886420ADD30201999189A904753
S1132CF0761E1A99491C1A910028F2D52DE0109CD1
S1132D0014994C43079845180026B44207D0A85D8F
S1132D101999189A9047761E0028F6D51DE01A983E
S1132D20801B1A90179C012C01DAFFF7C5FA2020AA
S1132D301999189A90471A99491C1A91641E179464
S1132D400028EFD509E0119A520600D43CE7179AFF
S1132D50012A00DB38E700223DE7199A9078042124
S1132D6001439170109823B0F0BD1A98FBE7C04658
S1132D70E9FF0000FEFF0000E7030000F0B503AF29
S1132D8086B00091064601210190914200DB9DE04E
S1132D903078252803D0761C0028F9D196E0747881
S1132DA0B61C252CF4D00391029201204102059116
S1132DB0002504952A46ABB21F2B09D82346203B95
S1132DC0102B07D801469940414B194240D101E0EC
S1132DD07F2B09D82346303B092B12D820210D43E1
S1132DE00A215143CA1833E04C2C22D0682C29D034
S1132DF06A2C1ED07A2C2BD0742C29D06C2C1BD08E
S1132E0031E07A2C24D000232A2C29D02E2C27D050
S1132E104C2C0ED0682C15D06A2C0AD06C2C0BD0FC
S1132E20742C15D0242C1ED10499002915D1049298
S1132E3016E0059980310AE0A900059B1940294351
S1132E40802504E06900059B1940294305020D43D0
S1132E503478761C002CAED104E003998A422BD03E
S1132E601A46F5E70024039904980028029A2DD005
S1132E7088428AD12020204301466539032901D3A1
S1132E80612806D1009B1868C01D072188430830BB
S1132E900DE0E0B2732807D0642803D0692801D07C
S1132EA0632801D028060BD4009B1868001D019EDE
S1132EB018600399491C68E7632403990846D4E71A
S1132EC0A9B2009B18688905DED4EFE706B0F0BD0F
S1132ED089280100F0B503AF87B014460D461F26BC
S1132EE000931E400196049406900024294632461D
S1132EF0234600F03BFF039002913246059423469B
S1132F0000F019FF069A101A092802D90099401AEC
S1132F103730049C30302070641C019E901B05984F
S1132F2085410398029DDED2204607B0F0BDD4D47B
S1132F30F0B503AF8DB01D46064630200C9250719B
S1132F404E480C46099004400A914800430D184627
S1132F50304320433122002809D04948002B08D0AF
S1132F6031220C994A711B180B93322204E00B9303
S1132F7001E0401C0B900C9900200A9BDB0F0B71A5
S1132F80002D03D40C2D03D90D2547E0054645E05B
S1132F9000920893C0430A90A90033200191421A79
S1132FA0059202200021029100F069FE0A46414286
S1132FB0069102990B46934107930A9BC01804900B
S1132FC02E484241224003920120059A00F057FE08
S1132FD0024604983040101A0846039B98410CD3CB
S1132FE03420059101990492421A3046214600F09A
S1132FF08BFE049A0599C0070AD096194C410A9889
S1133000801B0998A04103D20C990098487100E0F4
S11330100C99089B069806400798044001208002FA
S11330200B9A824203D1264320D008201FE0B868BF
S11330300D21002918D00F22324001D1A9420DDC04
S11330400A2A02D3121A573200E030320C9B5B1862
S11330505A71A9420A4600DC2A461546320923075A
S1133060D6182409491EE4E70C9902E00420C0188C
S113307008710B98086028460DB0F0BDFFFF0F00E3
S113308001FCFFFFD0B502AF42180346002906D069
S11330901C78002C02D0491E5B1CF7E71A46101A54
S11330A0D0BDD4D4F0B503AFA5B00C920446EF4A1A
S11330B00E4616401B903443CD0F4800400D224667
S11330C0002C0AD1002808D130200C994871002026
S11330D00860A81C0871012333E2E549884203D142
S11330E0002A22D0082021E0079306950025EB430F
S11330F0511E8A411692012102280B9100D32946C0
S1133100DA4AD543DA431B9B9B1A3246AA4100286C
S113311000D01B93002800D016461B9A920FB300D0
S1133120D44D002807D0441906E0042040190C9916
S11331300871002305E26C1C169808431690B868C1
S1133140089098181A901B9A11460B980140049104
S1133150900018900920C0431390002C3ED42046C0
S113316000F02AFB032C00D9401E0990099800F0B6
S11331702FFB19901CAD0998294600F0C7FB16983F
S1133180029020A8019022A800900998001B199988
S113319043187C331B9831462A4600F0EFF9199006
S11331A01B91099815284FD8189D28461A9E314618
S11331B000F0D4F92A468907800840181399491D5C
S11331C04143E942079C54D11046314600F008FBC4
S11331D000250999884263D22E467EE0654228463E
S11331E000F0F0FA01461794601C00D0491E6D1AD5
S11331F028460C4600F0ECFA19901CA928460D4606
S113320000F008FB1698029020A8019022A80090D4
S11332101998231A7D331B9831462A4600F0AEF9DB
S1133220224619901B91012C12D8049800280B9E59
S1133230079C169D30D000252298401E229023988A
S1133240A84123900B9E27E000263546079C44E0C6
S11332503E2A1ED80025E8430146224600F00FFD11
S11332601A9A8A4318998143114322464E424E4189
S113327011E00498002815D11698C0433146002661
S11332808018B14100F0ACFA0999884224D3012591
S113329023E000263546079C1798101809901CE077
S11332A001261AE02546022002431046314600F06A
S11332B097FA00262399229C631E0A461896B24167
S11332C0099EB04200D223462293099B98422C4681
S11332D000D20A462392189E3546F868059008984D
S11332E0002821460ED019981B9900F052FA09992A
S11332F0059A89180818012800DC01208442214617
S113330000DB014618960A91169521981590209C89
S11333102399229A00201A9017900D900F9210462C
S11333200E9100F011F906460D46149420461599A5
S113333000F00AF904461296801B10910846119574
S1133340A84103D20D98199D1A9E10E0199D284694
S11333501B9900F01EFA0A9988422EDD00290B9869
S11333601A9E04D128461B9908430B9827D00F9026
S113337020461A962E46139D6843149940184142DC
S113338041411698084016901798C0B241424141F5
S113339018980840189030461B9900F0D5F81B91F6
S11333A04543A91917911A99491C1A911099159115
S11333B0129A119919900F98AFE71A9E01E000250F
S11333C01B951698C007149C2AD01A961995159E19
S11333D02046314600F0B8F822460446139860436C
S11333E0D0421FD10D461798C0B2414241411898AE
S11333F0084018900F980E9900F0A6F80F900E91BF
S1133400199E30461B9900F09FF81B911399414374
S1133410891917911A99491C1A912E461990D7E7C0
S1133420189B03E0159618AE68CE14461798C0B2E0
S1133430411F4A1E9141DA0700D10B9900290B99CB
S113344000D129460D9AD2070CD16C401B9A159BCA
S11334505340234306D1049B5A425A41169B1A40B7
S1133460012A0CD1042807D8002006E0FFFF0F0032
S1133470FF070000CBFBFFFF012001400B910998DF
S11334803018199000220B9EA8191B991A925141C9
S113349004461B9100F07DF90546002E20D00A99C0
S11334A08D421EDD089800282246199C08D00598F4
S11334B020184019C11788430799814200DB01464F
S11334C08D4210DD0023501D0E461B9959410A22DE
S11334D000F04CFC02461B9131466D1E641C02E058
S11334E00A992246199C8D4200DB0D462BB21E1D03
S11334F020B2401E16901A98179398421BDA0A2598
S113350000241A9010461B9918922A46234600F06C
S11335102DFC19901B912A46234600F00CFC179BA6
S11335201899081A302101430C9881551A98761E6F
S1133530401C199AE1E70C99069808711698C0186E
S11335400860184625B0F0BD80B500AF00F006F85D
S11335504A07C0088018C90880BDD4D4F8B504AFA0
S113356002AA0092034A044B00F04EFA039902980F
S113357004B080BDCDCCCCCCCCCCCCCCF0B503AF9E
S113358093B0089316461268736810AC0094C40F85
S113359049000C1945002846214600F035FA0990E7
S11335A00A91B2680796F36811980D9010980C90E0
S11335B00EA800902846214600F026FA00230F9C0E
S11335C00E9A0692561C05945C410B940C9A84182E
S11335D00D9841410120119A109D0C94651B0D9189
S11335E09141049000D3184600280B9900D1059905
S11335F002930B910F91002800D1069E05960E961A
S11336000799086803904B688868C968089C413C1E
S1133610069400940C9E80190D9C6141099A039DA7
S113362052190A9A5341029B58415941821B0A4636
S1133630A241049E00D31E46059D6A1C0B9C634157
S1133640002E00D12346002E089C00D12A4600F00B
S113365011FABA6803C2F8680B903869012836D1A8
S1133660079A03CA0491116854680F9A07920E9A34
S11336700892069A00920C9A531A0D9AA2410024B9
S1133680591E05911146A1410126099D281A0A983F
S1133690049DA841304600D320460028059D00D152
S11336A01D46002800D111460C98401B0D988841F6
S11336B0089B00D326465A1E07980346A341002EB2
S11336C000D1089A002E00D10346284653E00798FB
S11336D0036842688168C06804900F9807900E9848
S11336E00590403C0094099DE80F0A9C640024184E
S11336F06E0001200025F31A94410890044600D37B
S11337002C4628460C9DEA0F0D9B5B009E186A0010
S11337100A9BDB0FD218531A3146049DA9415D1E42
S11337200A950D4609908541002C00D10D46002CC8
S113373000D10A930A98111A3146A9410898014602
S113374000D309990C9BD21A0D9A964100D309987B
S1133750059B5A001418D80F079A52001018621EBD
S11337600346099EB341002900D12246002900D115
S113377003460A98294600F07DF90B9A03C20F9B71
S11337800E9A069800900C980D9900F073F913B0F6
S1133790F0BDF8B504AF0C46054600210A20012609
S11337A02A1A22468A4105D30A22002300F0C3FACA
S11337B0761CF5E73046F8BD01494143880C704753
S11337C04134010001494143080D7047FB2E0B00B1
S11337D002494143C80C401C7047C0464F93120035
S11337E0F8B504AF0022D443084D094E054A064BF0
S11337F000F0A1FA641C821B0A46AA41F6D32046B3
S1133800F8BDC046CDCCCCCCCCCCCCCC33333333CC
S113381034333333F0B503AF8DB00D4606461A2466
S1133820214600F05BF922464243000134490C185A
S1133830964208D1E068E860A068A86060686860A3
S11338402068286059E006950AA800900196059220
S1133850B01AC0002B490D5808184668A268E368DE
S11338602846314600F0D0F80790029108A800904D
S11338700CCC2846314600F0C7F80490039100218F
S1133880099D0898079A80180790029845410846B0
S11338904841012805D10A98401C0A900B984841D8
S11338A00B90019C20460291FFF792FF0646059873
S11338B0FFF78EFF301A0590009004980399079A39
S11338C02E462B4600F0D6F8220992000E4B9A5849
S11338D02307DB0EDA4003231340C018069D28603B
S11338E00298414169600B9B0A9A059800900798D9
S11338F0314600F0BFF8A860E9600DB0F0BDC046E5
S113390008430000D8430000A8440000F0B503AF0A
S11339108DB00791064619301A25294600F0DEF8C5
S11339204543000135490C18B54209D1E0680799AF
S1133930C860A068886060684860206808605AE0D1
S11339400AA800900496A81BC0002D490E58081818
S113395041680391A268E368304600F055F8059089
S1133960069108A8009009CC0024421EA3413046C9
S1133970039900F049F80390029109990898059A6F
S1133980801805900698414106912046604101281F
S113399005D10A98401C0A900B9860410B90284668
S11339A0FFF716FF05462646049C2046FFF710FF46
S11339B0281A0190009003980299059A069B00F03A
S11339C059F8C943C043220992000E4B9A58230761
S11339D0DB0EDA4003231340181A079D28608E413A
S11339E06E600B9B0A9A019800900598069900F066
S11339F041F8A860E9600DB0F0BDC0460045000084
S1133A00D8430000F0450000F0B503AF85B004933F
S1133A1015460E46024602900024284621462346B7
S1133A2000F089F903900191284621463246234645
S1133A3000F081F90D460199081801906541049838
S1133A4021463246234600F076F90E462D1866418B
S1133A5004982146029A234600F06DF9019A12183F
S1133A606141B8686918016066414660039811466F
S1133A7005B0F0BDFEB506AF02930192BE683246B2
S1133A8000F042F904460D464020821B0198029939
S1133A9000F0F5F82043294303B0F0BD80B500AF32
S1133AA00A46002100F00BF880BDD0B502AF002318
S1133AB09A4203D0CC5CC4545B1CF9E7D0BD00230C
S1133AC09A4202D0C1545B1CFAE770470023C25CDF
S1133AD05B1C002AFBD1581E7047D4D4012925D37E
S1133AE000D17047884201D20020704702468446C4
S1133AF05FA00130130C8B4201D31A00A038130AC3
S1133B008B4201D31A00503813098B4201D31A0097
S1133B10283893088B4201D31A00143853088B4277
S1133B2000D30A380200604600231047002080B505
S1133B3000F01BF980BDC04600BFCA07904200D305
S1133B40801A5B418A07904200D3801A5B414A077E
S1133B50904200D3801A5B410A07904200D3801A36
S1133B605B41CA06904200D3801A5B418A069042A8
S1133B7000D3801A5B414A06904200D3801A5B410D
S1133B800A06904200D3801A5B41CA05904200D3D2
S1133B90801A5B418A05904200D3801A5B414A0532
S1133BA0904200D3801A5B410A05904200D3801AE8
S1133BB05B41CA04904200D3801A5B418A0490425C
S1133BC000D3801A5B414A04904200D3801A5B41BF
S1133BD00A04904200D3801A5B41CA03904200D386
S1133BE0801A5B418A03904200D3801A5B414A03E6
S1133BF0904200D3801A5B410A03904200D3801A9A
S1133C005B41CA02904200D3801A5B418A0290420F
S1133C1000D3801A5B414A02904200D3801A5B4170
S1133C200A02904200D3801A5B41CA01904200D339
S1133C30801A5B418A01904200D3801A5B414A0199
S1133C40904200D3801A5B410A01904200D3801A4B
S1133C505B41CA00904200D3801A5B418A009042C3
S1133C6000D3801A5B414A00904200D3801A5B4122
S1133C700A00904200D3801A5B411846704710B581
S1133C80034690060BD4002A0ED091402020801ABF
S1133C901C46C4400C4318469040214610BD203AAF
S1133CA093400020194610BD184610BD70B5010C94
S1133CB04A424A41110110224A40D040FF221202D6
S1133CC0024053425341DA0008235340D840F023C2
S1133CD003405C425C41A30004245C40E0400C24AB
S1133CE00440654265416C00022526466E40F04062
S1133CF02D1A40080126F6430643701C284051182B
S1133D00C9180919081870BD10B50B4691060BD4D3
S1133D10002A0ED0D0402021891A1C468C4004432E
S1133D20D3401946204610BD203AD34000211846FE
S1133D3010BD194610BDB0B5514343435918030C87
S1133D40140C1D466543491992B2534380B2424351
S1133D50150CEB181D0C49199BB260431818030C81
S1133D60C918000492B28018B0BD704740B584B041
S1133D7002AE009600F004F8029A039B04B040BD22
S1133D80F0B587B006460C9D002919D00C46002AD0
S1133D9002921ED00095002B37D00546374601937A
S1133DA01846FFF783FF06462046FFF77FFF361AC3
S1133DB0202E53D30098002823D00560446020E0CF
S1133DC0002B3CD0002D1CD0002103C5084607B0B1
S1133DD0F0BD002B4BD0002E00D1B6E05A1E13428A
S1133DE000D0C1E0002D01D0224005C5002B00D138
S1133DF0E8E05842184085494143C80E84A1085C54
S1133E00E1E00020014607B0F0BD1146521E114208
S1133E102FD12146009C002C02D0002332400CC438
S1133E20029A012A00D18EE0002A00D1D0E050424B
S1133E301040764A4243D00E75A2125CC9E0344663
S1133E4011461646FFF74AFE002D04D000214643D2
S1133E50A21B2A606960002107B0F0BD701C00221B
S1133E6020281AD12020069411462B4622E007B0C0
S1133E70F0BD0746019335460846FFF717FF06468F
S1133E802046FFF713FF301A21300022202800D0EB
S1133E9088E02020069411460BE03946C1402346B1
S1133EA01F2466401C46B4400C430694C340B740EC
S1133EB019463B4600240DE0FF0F049A53002546A3
S1133EC01D43D30F039A5200D318401E3C462A4682
S1133ED005991BD0049202460698C50F49004E1955
S1133EE00393D90F45006D180298291A0691334699
S1133EF001998B410593F743EB431B184F4100D4C1
S1133F000596002F1046D7D40695D5E71A46002308
S1133F10D8430490401C1E465E41EC0F26405200DC
S1133F20B6186A00009D002D04D00392069A2A60F8
S1133F30039A696004994D1E9B411C4026433146F7
S1133F402A401743384307B0F0BD204626461C4696
S1133F501946FFF7C3FD002D03D000214443321B53
S1133F6006C5002107B0F0BD00950546374601930C
S1133F701846FFF79BFE06462046FFF797FE311AC8
S1133F801F2900D316E7481C3B46C3401F254D405C
S1133F902146A940194306913B46C440AB40002248
S1133FA0214687E723461F281ED82946C1402024DE
S1133FB0241A1E46A6400E430696C340A540194641
S1133FC02B4677E72020C4400021204607B0F0BDEF
S1133FD020221F2310461840C640934348009840AF
S1133FE03043D14007B0F0BD0146203917462A4678
S1133FF0CA404024241A1E46A6401643CB40A5407E
S1134000069339462A46334654E7C04631B57C0701
S113401000011C021D0E18031E16140F19110408AA
S11340201F1B0D17151310071A0C12060B050A098E
S1134030000000000000000000000000000000007C
S1134040000000000000000000000000000000006C
S1134050000000000000000000000000000000005C
S1134060000000000000000000000000000000004C
S1134070000000000000000000000000000000003C
S1134080000000000000000000000000000000002C
S1134090000000000000000000000000000000001C
S11340A0000000000000000000000000241624733B
S11340B025640A00246C3525640A002476312564BD
S11340C00A0024723125643A25643A25640A0024DE
S11340D042310A002442300A005075736865640056
S11340E024763425640A004657207630302E303347
S11340F02E30310D0A00696E660024763025640A7C
S113410000246C3425640A0024723025643A256442
S11341103A25640A0024763525640A00243125648E
S11341200A0024723225643A25643A25643A2564E7
S11341300A004E6F742050757368656400246C30F7
S113414025640A004150432053656E736F722053F7
S11341506869656C640D0A006E616E00286E756C8A
S11341606C2900D4000F00000100000007040000C7
S1134170040100000D020000040400000300001705
S11341800000000200000000000000000000000029
S1134190000000008D0E00000000000064410000DB
S11341A001554C000D090000440100000E090000F7
S11341B04401000000000000A0860100000000008F
S11341C0010200001A0000000000000000000000CE
S11341D06D0E000000000000A0410000010000007E
S11341E03A40002000030000022902280000FFDFFB
S11341F00000000000000000951D00000000000009
S1134200DC4100000500000008000000040000007C
S113421009000000000000000A0000000500000082
S11342200B000000008000000C0000000080000073
S11342300D000000008000000E000000004000009F
S11342400F00000010000000000100000500000045
S1134250010100000500000002010000050000004B
S11342600301000000010000080100000500000037
S113427009010000050000000A010000050000001B
S11342800C010000004000000002000005000000D6
S1134290010200000000000006020000000200000D
S11342A007020000040200000802000000040000ED
S11342B00C020000040400000D02000000000000D5
S11342C00E020000000000000F02000000010000C8
S11342D000030000040100000704000000010000C6
S11342E00D090000000100000E0900001D0000007F
S11342F00442000000000000002060400020103054
S113430008281838D4D4D4D40000000000000000D9
S11343100000000000000010000000000000000089
S1134320B9340332B7F4AD1410DB1AB30892540E47
S11343300D307D951447BA1A66088F4D26ADC66DAB
S1134340F598BF85E2B74511CA96853D92BD1DEB30
S1134350FCA11860DCEF52163C92AE220BB8C1B43B
S1134360839D2D5B0562DA1C304C7E8F4E8BB25BD5
S113437016F4529F8B56A512FBD4827643ED8AF035
S11343808FE7F9311565191850F19BD94A13EEB42A
S1134390284CF0A686C1251F035FC270CB9E491628
S11343A0E642889C44EB2014B0650836AD6EA585C2
S11343B085F0CA14E2FD031A0B899979D5B13D0938
S11343C0D8DA973A35EBCF10AC363F5E73BB38CFB3
S11343D03E6752FA44AFBA15010000000000000025
S11343E005000000000000001900000000000000AB
S11343F07D000000000000007102000000000000C9
S1134400350C000000000000093D00000000000021
S11344102D31010000000000E1F50500000000005E
S113442065CD1D0000000000F902950000000000A9
S1134430DD0EE90200000000514A8D0E000000006C
S11344409573C24800000000E941CC6B01000000F4
S11344508D49FD1A07000000C16FF2862300000099
S1134460C52EBCA2B1000000D9E9AC2D7803000030
S11344703D9160E45811000031D6E275BC5600004D
S1134480F52E6E4DAEB10100C9EA268367780800A7
S1134490ED95C28F055A2A00A1EDCCCE1BC2D300E4
S11344A025A4000A8BCA22040000000000000000BA
S11344B00000000000000000000000409559695908
S11344C05555545515555556040515411054554028
S11344D045515544404550445055554500400040D1
S11344E04004449665555655454045545141154040
S11344F055915555555540510501000000000000E7
S11345000100000000000000000000000000002086
S1134510345065C05FC9A652BB13CBAEC440C218A9
S113452006C8DF7100D5A87CF56F0FDA58FC271395
S11345306E4756357D24206502C7E768E48CA41DC8
S1134540E9E60268D7CD39617977FCC2405BEF16A2
S1134550798CDE43FFA751F991F3B278F5BDBE1112
S1134560E857E9D6E8BEE87BB054AC8F848D751B60
S1134570EA23A499E9F9D38BB7A3714061DA3E1514
S1134580CEE33ECB73F948088C97B427D51B701043
S1134590A2BFEFB9EB8532154DB44DB49BBB6F1977
S11345A096B6076CF8E7EEAD36D9B4F59135AE138F
S11345B0222218AF4E6A684D91DAAA3D4F40741E0C
S11345C09FBD9EE006A1C09857C2A7FDA40E9017F8
S11345D00E7D497173E3208FB220D87605143B1207
S11345E0853D7434811343B0AD297A5F27F4351CBB
S11345F05445545445550504001004101404400057
S113460000000140555515415404000044000100C8
S113461000000040410000445044455054005555AA
S1134620545565510040004001000001000501009F
S1134630115451515455550500000000000000006C
S11346400000000000000006362E302E30004275B7
S1134650696C7420776974682052656E6573617340
S113466020416476616E63656420466C6578696296
S11346706C6520536F667477617265205061636B5B
S11346806167652076657273696F6E20362E302EF1
S10546903000F4
S9030141BA
